{
  "address": "0x953693c87E78166c9Ea4AfC90acA8792F95Da8d4",
  "abi": [
    {
      "inputs": [],
      "stateMutability": "nonpayable",
      "type": "constructor"
    },
    {
      "inputs": [
        {
          "internalType": "address",
          "name": "sender",
          "type": "address"
        },
        {
          "internalType": "uint256",
          "name": "tokenId",
          "type": "uint256"
        },
        {
          "internalType": "address",
          "name": "owner",
          "type": "address"
        }
      ],
      "name": "ERC721IncorrectOwner",
      "type": "error"
    },
    {
      "inputs": [
        {
          "internalType": "address",
          "name": "operator",
          "type": "address"
        },
        {
          "internalType": "uint256",
          "name": "tokenId",
          "type": "uint256"
        }
      ],
      "name": "ERC721InsufficientApproval",
      "type": "error"
    },
    {
      "inputs": [
        {
          "internalType": "address",
          "name": "approver",
          "type": "address"
        }
      ],
      "name": "ERC721InvalidApprover",
      "type": "error"
    },
    {
      "inputs": [
        {
          "internalType": "address",
          "name": "operator",
          "type": "address"
        }
      ],
      "name": "ERC721InvalidOperator",
      "type": "error"
    },
    {
      "inputs": [
        {
          "internalType": "address",
          "name": "owner",
          "type": "address"
        }
      ],
      "name": "ERC721InvalidOwner",
      "type": "error"
    },
    {
      "inputs": [
        {
          "internalType": "address",
          "name": "receiver",
          "type": "address"
        }
      ],
      "name": "ERC721InvalidReceiver",
      "type": "error"
    },
    {
      "inputs": [
        {
          "internalType": "address",
          "name": "sender",
          "type": "address"
        }
      ],
      "name": "ERC721InvalidSender",
      "type": "error"
    },
    {
      "inputs": [
        {
          "internalType": "uint256",
          "name": "tokenId",
          "type": "uint256"
        }
      ],
      "name": "ERC721NonexistentToken",
      "type": "error"
    },
    {
      "inputs": [
        {
          "internalType": "address",
          "name": "owner",
          "type": "address"
        }
      ],
      "name": "OwnableInvalidOwner",
      "type": "error"
    },
    {
      "inputs": [
        {
          "internalType": "address",
          "name": "account",
          "type": "address"
        }
      ],
      "name": "OwnableUnauthorizedAccount",
      "type": "error"
    },
    {
      "anonymous": false,
      "inputs": [
        {
          "indexed": true,
          "internalType": "address",
          "name": "owner",
          "type": "address"
        },
        {
          "indexed": true,
          "internalType": "address",
          "name": "approved",
          "type": "address"
        },
        {
          "indexed": true,
          "internalType": "uint256",
          "name": "tokenId",
          "type": "uint256"
        }
      ],
      "name": "Approval",
      "type": "event"
    },
    {
      "anonymous": false,
      "inputs": [
        {
          "indexed": true,
          "internalType": "address",
          "name": "owner",
          "type": "address"
        },
        {
          "indexed": true,
          "internalType": "address",
          "name": "operator",
          "type": "address"
        },
        {
          "indexed": false,
          "internalType": "bool",
          "name": "approved",
          "type": "bool"
        }
      ],
      "name": "ApprovalForAll",
      "type": "event"
    },
    {
      "anonymous": false,
      "inputs": [
        {
          "indexed": true,
          "internalType": "uint256",
          "name": "tokenId",
          "type": "uint256"
        },
        {
          "indexed": true,
          "internalType": "address",
          "name": "recipient",
          "type": "address"
        },
        {
          "indexed": false,
          "internalType": "uint256",
          "name": "amount",
          "type": "uint256"
        }
      ],
      "name": "EscrowReleased",
      "type": "event"
    },
    {
      "anonymous": false,
      "inputs": [
        {
          "indexed": true,
          "internalType": "uint256",
          "name": "tokenId",
          "type": "uint256"
        },
        {
          "indexed": true,
          "internalType": "uint256",
          "name": "serviceId",
          "type": "uint256"
        },
        {
          "indexed": false,
          "internalType": "address",
          "name": "acceptor",
          "type": "address"
        },
        {
          "indexed": false,
          "internalType": "uint256",
          "name": "amount",
          "type": "uint256"
        }
      ],
      "name": "NFTBurned",
      "type": "event"
    },
    {
      "anonymous": false,
      "inputs": [
        {
          "indexed": true,
          "internalType": "uint256",
          "name": "tokenId",
          "type": "uint256"
        },
        {
          "indexed": true,
          "internalType": "uint256",
          "name": "serviceId",
          "type": "uint256"
        },
        {
          "indexed": false,
          "internalType": "address",
          "name": "requester",
          "type": "address"
        },
        {
          "indexed": false,
          "internalType": "address",
          "name": "acceptor",
          "type": "address"
        },
        {
          "indexed": false,
          "internalType": "uint256",
          "name": "amount",
          "type": "uint256"
        }
      ],
      "name": "NFTMinted",
      "type": "event"
    },
    {
      "anonymous": false,
      "inputs": [
        {
          "indexed": true,
          "internalType": "address",
          "name": "previousOwner",
          "type": "address"
        },
        {
          "indexed": true,
          "internalType": "address",
          "name": "newOwner",
          "type": "address"
        }
      ],
      "name": "OwnershipTransferred",
      "type": "event"
    },
    {
      "anonymous": false,
      "inputs": [
        {
          "indexed": true,
          "internalType": "address",
          "name": "from",
          "type": "address"
        },
        {
          "indexed": true,
          "internalType": "address",
          "name": "to",
          "type": "address"
        },
        {
          "indexed": true,
          "internalType": "uint256",
          "name": "tokenId",
          "type": "uint256"
        }
      ],
      "name": "Transfer",
      "type": "event"
    },
    {
      "inputs": [
        {
          "internalType": "address",
          "name": "to",
          "type": "address"
        },
        {
          "internalType": "uint256",
          "name": "tokenId",
          "type": "uint256"
        }
      ],
      "name": "approve",
      "outputs": [],
      "stateMutability": "nonpayable",
      "type": "function"
    },
    {
      "inputs": [
        {
          "internalType": "address",
          "name": "owner",
          "type": "address"
        }
      ],
      "name": "balanceOf",
      "outputs": [
        {
          "internalType": "uint256",
          "name": "",
          "type": "uint256"
        }
      ],
      "stateMutability": "view",
      "type": "function"
    },
    {
      "inputs": [
        {
          "internalType": "uint256",
          "name": "_tokenId",
          "type": "uint256"
        }
      ],
      "name": "completeServiceAndBurn",
      "outputs": [],
      "stateMutability": "nonpayable",
      "type": "function"
    },
    {
      "inputs": [],
      "name": "emergencyWithdraw",
      "outputs": [],
      "stateMutability": "nonpayable",
      "type": "function"
    },
    {
      "inputs": [
        {
          "internalType": "uint256",
          "name": "tokenId",
          "type": "uint256"
        }
      ],
      "name": "getApproved",
      "outputs": [
        {
          "internalType": "address",
          "name": "",
          "type": "address"
        }
      ],
      "stateMutability": "view",
      "type": "function"
    },
    {
      "inputs": [
        {
          "internalType": "uint256",
          "name": "_tokenId",
          "type": "uint256"
        }
      ],
      "name": "getNFTData",
      "outputs": [
        {
          "components": [
            {
              "internalType": "uint256",
              "name": "serviceId",
              "type": "uint256"
            },
            {
              "internalType": "address",
              "name": "requester",
              "type": "address"
            },
            {
              "internalType": "address",
              "name": "acceptor",
              "type": "address"
            },
            {
              "internalType": "uint256",
              "name": "escrowAmount",
              "type": "uint256"
            },
            {
              "internalType": "bool",
              "name": "completed",
              "type": "bool"
            }
          ],
          "internalType": "struct ServiceNFT.NFTData",
          "name": "",
          "type": "tuple"
        }
      ],
      "stateMutability": "view",
      "type": "function"
    },
    {
      "inputs": [],
      "name": "getTokenCounter",
      "outputs": [
        {
          "internalType": "uint256",
          "name": "",
          "type": "uint256"
        }
      ],
      "stateMutability": "view",
      "type": "function"
    },
    {
      "inputs": [
        {
          "internalType": "uint256",
          "name": "_serviceId",
          "type": "uint256"
        }
      ],
      "name": "getTokenIdForService",
      "outputs": [
        {
          "internalType": "uint256",
          "name": "",
          "type": "uint256"
        }
      ],
      "stateMutability": "view",
      "type": "function"
    },
    {
      "inputs": [
        {
          "internalType": "address",
          "name": "owner",
          "type": "address"
        },
        {
          "internalType": "address",
          "name": "operator",
          "type": "address"
        }
      ],
      "name": "isApprovedForAll",
      "outputs": [
        {
          "internalType": "bool",
          "name": "",
          "type": "bool"
        }
      ],
      "stateMutability": "view",
      "type": "function"
    },
    {
      "inputs": [
        {
          "internalType": "uint256",
          "name": "_serviceId",
          "type": "uint256"
        },
        {
          "internalType": "address",
          "name": "_requester",
          "type": "address"
        },
        {
          "internalType": "address",
          "name": "_acceptor",
          "type": "address"
        }
      ],
      "name": "mintServiceNFT",
      "outputs": [
        {
          "internalType": "uint256",
          "name": "",
          "type": "uint256"
        }
      ],
      "stateMutability": "payable",
      "type": "function"
    },
    {
      "inputs": [],
      "name": "name",
      "outputs": [
        {
          "internalType": "string",
          "name": "",
          "type": "string"
        }
      ],
      "stateMutability": "view",
      "type": "function"
    },
    {
      "inputs": [
        {
          "internalType": "uint256",
          "name": "",
          "type": "uint256"
        }
      ],
      "name": "nftData",
      "outputs": [
        {
          "internalType": "uint256",
          "name": "serviceId",
          "type": "uint256"
        },
        {
          "internalType": "address",
          "name": "requester",
          "type": "address"
        },
        {
          "internalType": "address",
          "name": "acceptor",
          "type": "address"
        },
        {
          "internalType": "uint256",
          "name": "escrowAmount",
          "type": "uint256"
        },
        {
          "internalType": "bool",
          "name": "completed",
          "type": "bool"
        }
      ],
      "stateMutability": "view",
      "type": "function"
    },
    {
      "inputs": [],
      "name": "owner",
      "outputs": [
        {
          "internalType": "address",
          "name": "",
          "type": "address"
        }
      ],
      "stateMutability": "view",
      "type": "function"
    },
    {
      "inputs": [
        {
          "internalType": "uint256",
          "name": "tokenId",
          "type": "uint256"
        }
      ],
      "name": "ownerOf",
      "outputs": [
        {
          "internalType": "address",
          "name": "",
          "type": "address"
        }
      ],
      "stateMutability": "view",
      "type": "function"
    },
    {
      "inputs": [],
      "name": "renounceOwnership",
      "outputs": [],
      "stateMutability": "nonpayable",
      "type": "function"
    },
    {
      "inputs": [
        {
          "internalType": "address",
          "name": "from",
          "type": "address"
        },
        {
          "internalType": "address",
          "name": "to",
          "type": "address"
        },
        {
          "internalType": "uint256",
          "name": "tokenId",
          "type": "uint256"
        }
      ],
      "name": "safeTransferFrom",
      "outputs": [],
      "stateMutability": "nonpayable",
      "type": "function"
    },
    {
      "inputs": [
        {
          "internalType": "address",
          "name": "from",
          "type": "address"
        },
        {
          "internalType": "address",
          "name": "to",
          "type": "address"
        },
        {
          "internalType": "uint256",
          "name": "tokenId",
          "type": "uint256"
        },
        {
          "internalType": "bytes",
          "name": "data",
          "type": "bytes"
        }
      ],
      "name": "safeTransferFrom",
      "outputs": [],
      "stateMutability": "nonpayable",
      "type": "function"
    },
    {
      "inputs": [],
      "name": "serviceContract",
      "outputs": [
        {
          "internalType": "address",
          "name": "",
          "type": "address"
        }
      ],
      "stateMutability": "view",
      "type": "function"
    },
    {
      "inputs": [
        {
          "internalType": "uint256",
          "name": "",
          "type": "uint256"
        }
      ],
      "name": "serviceToTokenId",
      "outputs": [
        {
          "internalType": "uint256",
          "name": "",
          "type": "uint256"
        }
      ],
      "stateMutability": "view",
      "type": "function"
    },
    {
      "inputs": [
        {
          "internalType": "address",
          "name": "operator",
          "type": "address"
        },
        {
          "internalType": "bool",
          "name": "approved",
          "type": "bool"
        }
      ],
      "name": "setApprovalForAll",
      "outputs": [],
      "stateMutability": "nonpayable",
      "type": "function"
    },
    {
      "inputs": [
        {
          "internalType": "address",
          "name": "_serviceContract",
          "type": "address"
        }
      ],
      "name": "setServiceContract",
      "outputs": [],
      "stateMutability": "nonpayable",
      "type": "function"
    },
    {
      "inputs": [
        {
          "internalType": "bytes4",
          "name": "interfaceId",
          "type": "bytes4"
        }
      ],
      "name": "supportsInterface",
      "outputs": [
        {
          "internalType": "bool",
          "name": "",
          "type": "bool"
        }
      ],
      "stateMutability": "view",
      "type": "function"
    },
    {
      "inputs": [],
      "name": "symbol",
      "outputs": [
        {
          "internalType": "string",
          "name": "",
          "type": "string"
        }
      ],
      "stateMutability": "view",
      "type": "function"
    },
    {
      "inputs": [
        {
          "internalType": "uint256",
          "name": "tokenId",
          "type": "uint256"
        }
      ],
      "name": "tokenURI",
      "outputs": [
        {
          "internalType": "string",
          "name": "",
          "type": "string"
        }
      ],
      "stateMutability": "view",
      "type": "function"
    },
    {
      "inputs": [
        {
          "internalType": "address",
          "name": "from",
          "type": "address"
        },
        {
          "internalType": "address",
          "name": "to",
          "type": "address"
        },
        {
          "internalType": "uint256",
          "name": "tokenId",
          "type": "uint256"
        }
      ],
      "name": "transferFrom",
      "outputs": [],
      "stateMutability": "nonpayable",
      "type": "function"
    },
    {
      "inputs": [
        {
          "internalType": "address",
          "name": "newOwner",
          "type": "address"
        }
      ],
      "name": "transferOwnership",
      "outputs": [],
      "stateMutability": "nonpayable",
      "type": "function"
    },
    {
      "stateMutability": "payable",
      "type": "receive"
    }
  ],
  "transactionHash": "0x1417daaf3eda0597388edd259d99a20d078b2006c52648ab240d31230b612a4d",
  "args": [],
  "numDeployments": 2,
  "solcInputHash": "c2e030876fb2c1a07864cd2a29d0543d",
  "bytecode": "0x6080604081815234620004375762000017826200043c565b600a825260206914d95c9d9a58d953919560b21b818401528151906200003d826200043c565b60048083526314d3919560e21b82840152845190946001600160401b039081831162000422576000948554936001928386811c9616801562000417575b8787101462000323578190601f96878111620003c4575b5087908783116001146200036057899262000354575b5050600019600383901b1c191690831b1786555b805190838211620003415782548381811c9116801562000336575b878210146200032357908186849311620002d0575b5086908683116001146200026c57889262000260575b5050600019600383901b1c191690821b1790555b3315620002495760068054336001600160a01b0319821681179092556001600160a01b03167f8be0079c531659141344cd1fd0a4f28419497f9722a3daafe3b4186f6b6457e08680a38451916200016c836200043c565b601783527f536572766963654e4654206465706c6f7965642062793a00000000000000000084840152855192838581019563319af33360e01b875288602483015282519081606484015288935b8285106200022f57505060a392508760848284010152336044830152601f1993849101168101036064810185520116820190828210908211176200021c5784849596505251906a636f6e736f6c652e6c6f675afa5051611c8990816200046f8239f35b634e487b7160e01b845260418652602484fd5b8481018201518886016084015293810193879350620001b9565b8451631e4fbdf760e01b8152808701859052602490fd5b01519050388062000101565b8489528789208594509190601f1984168a5b8a828210620002b957505084116200029f575b505050811b01905562000115565b015160001960f88460031b161c1916905538808062000291565b83850151865588979095019493840193016200027e565b9091508388528688208680850160051c82019289861062000319575b918691869594930160051c01915b8281106200030a575050620000eb565b8a8155859450869101620002fa565b92508192620002ec565b634e487b7160e01b885260228a52602488fd5b90607f1690620000d6565b634e487b7160e01b875260418952602487fd5b015190503880620000a7565b898052888a208694509190601f1984168b5b8b828210620003ad575050841162000393575b505050811b018655620000bb565b015160001960f88460031b161c1916905538808062000385565b838501518655899790950194938401930162000372565b9091508880528789208780850160051c8201928a86106200040d575b918791869594930160051c01915b828110620003fe57505062000091565b8b8155859450879101620003ee565b92508192620003e0565b95607f16956200007a565b604187634e487b7160e01b6000525260246000fd5b600080fd5b604081019081106001600160401b038211176200045857604052565b634e487b7160e01b600052604160045260246000fdfe60806040818152600480361015610057575b509050361561001f57600080fd5b610055905161002d81611435565b601481527329b2b93b34b1b2a7232a103932b1b2b4bb32b21d60611b60208201523490611bab565b005b600092833560e01c90816301ffc9a7146112f15750806306fdde031461122657806307afee9a14611168578063081812fc1461112d578063095ea7b3146110515780630ad4c4f414610f7b5780630b6e5b3314610cbb57806323b872dd14610ca3578063364dab1014610c7a57806342842e0e14610c4b5780636352211e14610c1a5780636e02007d14610bfb57806370a0823114610ba6578063715018a614610b495780638c21097514610ae85780638da5cb5b14610abf57806395d89b41146109a6578063a22cb465146108fb578063a614c6b2146108d4578063b88d4fde14610840578063c87b56dd146107ed578063db2e21bc146106b9578063e985e9c51461066b578063f2fde38b146105e1578063f6c9d181146101a85763f77877080361001157346101a45760203660031901126101a45760209282913581526009845220549051908152f35b8280fd5b509060603660031901126101a45781356101c06113b8565b6001600160a01b03946044949185358781169290918383036105dd576101eb89600a541633146116c7565b34156105ab5788169384156105755783156105405785825260209860098a52878320546104f25761021d60075461171e565b988960075588519061022e82611451565b8482528261023c8c886117b4565b166104db57908b939291863b6103d4575b505093898981989560097ffb7c55101ba96617cfe027bd6daa019de1a297279a706b1ab40698252780ee7699966103028d6103bf9860609c87519261029184611403565b83528483018d81528884018d81528f85019134835260808601938a85528c8b52600889528b8b20965187558060018801925116916001600160601b0360a01b9283825416179055600287019251169082541617905551600384015551151591019060ff801983541691151516179055565b8c835252205561033f878c7527232a1036b4b73a32b21016902a37b5b2b71024a21d60511b8c519161033383611435565b60168352820152611bab565b61036b888c6a29b2b93b34b1b29024a21d60a91b8c519161035f83611435565b600b8352820152611bab565b61039a895161037981611435565b600e81526d22b9b1b937bb9030b6b7bab73a1d60911b8d8201523490611bab565b88516103a581611435565b600981526820b1b1b2b83a37b91d60b91b8c820152611c03565b8651918252888201523486820152a351908152f35b9361041c91888d88879f9c9a99988f9e9c9f9897985196879586948593630a85bd0160e11b9b8c8652339086015285602486015284015260806064840152608483019061135d565b03925af1849181610497575b5061045e578b8b8b8b61043961157f565b8051948561045857505051633250574960e11b81529182015260249150fd5b85925001fd5b63ffffffff60e09b949596989b9a97999a1b160361048057899190898961024d565b8751633250574960e11b8152808301869052602490fd5b9091508c81813d83116104d4575b6104af818361146d565b810103126104d057516001600160e01b0319811681036104d0579038610428565b8480fd5b503d6104a5565b89516339e3563760e11b8152808501869052602490fd5b875162461bcd60e51b81528083018b9052602360248201527f4e465420616c7265616479206d696e74656420666f7220746869732073657276818b01526269636560e81b6064820152608490fd5b6064906f24b73b30b634b21030b1b1b2b83a37b960811b8960208a519362461bcd60e51b855284015260106024840152820152fd5b6064907024b73b30b634b2103932b8bab2b9ba32b960791b8960208a519362461bcd60e51b855284015260116024840152820152fd5b865162461bcd60e51b8152602081870152600d60248201526c139bc8199d5b991cc81cd95b9d609a1b818a0152606490fd5b5080fd5b50346101a45760203660031901126101a4576105fb61139d565b906106046114ab565b6001600160a01b03918216928315610655575050600654826001600160601b0360a01b821617600655167f8be0079c531659141344cd1fd0a4f28419497f9722a3daafe3b4186f6b6457e08380a380f35b51631e4fbdf760e01b8152908101849052602490fd5b5050346105dd57806003193601126105dd5760ff8160209361068b61139d565b6106936113b8565b6001600160a01b0391821683526005875283832091168252855220549151911615158152f35b5090346101a457826003193601126101a4576106d36114ab565b4780156107b357836001600754905b818111156107465750508080809360018060a01b03600654165af161070561157f565b501561070f578280f35b906020606492519162461bcd60e51b8352820152601160248201527015da5d1a191c985dd85b0819985a5b1959607a1b6044820152fd5b8091925260206002815260018060a01b038588205416610772575061076a9061171e565b9085916106e2565b858160649287519262461bcd60e51b845283015260248201527f43616e6e6f74207769746864726177207769746820616374697665204e4654736044820152fd5b815162461bcd60e51b815260208185015260146024820152734e6f2066756e647320746f20776974686472617760601b6044820152606490fd5b509190346105dd5760203660031901126105dd5761080e61083c9335611544565b5081815161081b81611451565b5280519161082883611451565b82525191829160208352602083019061135d565b0390f35b5090346101a45760803660031901126101a45761085b61139d565b6108636113b8565b60443591856064359567ffffffffffffffff87116105dd57366023880112156105dd578601359561089f6108968861148f565b9651968761146d565b86865236602488830101116105dd57866108d19760246020930183890137860101526108cc8383836114d7565b6115af565b80f35b50346101a45760203660031901126101a45760209282913581526009845220549051908152f35b5090346101a457806003193601126101a45761091561139d565b90602435801515928382036109a2576001600160a01b031693841561098b575061095e9033865260056020528286208587526020528286209060ff801983541691151516179055565b519081527f17307eab39ab6107e8899845ad3d59bd9653f200f220920489ca2b5937696c3160203392a380f35b8251630b61174360e31b8152908101859052602490fd5b8580fd5b509134610abc5780600319360112610abc578151918160019283549384811c91818616958615610ab2575b6020968785108114610a9f578899509688969785829a529182600014610a78575050600114610a1d575b50505061083c9291610a0e91038561146d565b5192828493845283019061135d565b91908693508083527fb10e2d527612073b26eecdfd717e6a320cf44b4afac2b0732d9fcbe2b7fa0cf65b828410610a605750505082010181610a0e61083c6109fb565b8054848a018601528895508794909301928101610a47565b60ff19168782015293151560051b86019093019350849250610a0e915061083c90506109fb565b634e487b7160e01b835260228a52602483fd5b92607f16926109d1565b80fd5b5050346105dd57816003193601126105dd5760065490516001600160a01b039091168152602090f35b5090346101a45760203660031901126101a4578060a09383358152600860205220805492600180861b039260ff8460018501541694600285015416926003850154940154169381519586526020860152840152606083015215156080820152f35b8334610abc5780600319360112610abc57610b626114ab565b600680546001600160a01b0319811690915581906001600160a01b03167f8be0079c531659141344cd1fd0a4f28419497f9722a3daafe3b4186f6b6457e08280a380f35b509134610abc576020366003190112610abc576001600160a01b03610bc961139d565b16928315610be65750806020938392526003845220549051908152f35b91516322718ad960e21b815291820152602490fd5b5050346105dd57816003193601126105dd576020906007549051908152f35b509134610abc576020366003190112610abc5750610c3a60209235611544565b90516001600160a01b039091168152f35b5050346105dd576108d190610c5f366113ce565b91925192610c6c84611451565b8584526108cc8383836114d7565b5050346105dd57816003193601126105dd57600a5490516001600160a01b039091168152602090f35b8334610abc576108d1610cb5366113ce565b916114d7565b50346101a457602080600319360112610f7757600a546001600160a01b039383359391610ceb90861633146116c7565b83151580610f6b575b610cfd90611743565b8386526002835284818720541615610f335783865260088352808620948286019283549160ff8316610ef0576003880154948515610eb85760018260028b01541699549460ff1916179055610d5187611782565b1615610ea15787808080878b5af1610d6761157f565b5015610e675750907f6244ed823ca6be0f11bc890c3fafcf3c29cb23420c14243642e930b5e07e6d0a939291610dc9868351610da281611435565b601681527527232a10313ab93732b21016902a37b5b2b71024a21d60511b87820152611bab565b610dfb878351610dd881611435565b6012815271233ab73239903932b632b0b9b2b2103a379d60711b87820152611c03565b610e22838351610e0a81611435565b600781526620b6b7bab73a1d60c91b87820152611bab565b81516001600160a01b03881681526020810184905286907f947f43d3ebbeb0ae0e33f5cda6d39469087a618440ec3d63a08e7fa36e5d729b90604090a351908152a380f35b825162461bcd60e51b81529081018590526014602482015273119d5b99081d1c985b9cd9995c8819985a5b195960621b6044820152606490fd5b8251637e27328960e01b8152908101869052602490fd5b845162461bcd60e51b815280840188905260126024820152714e6f2066756e647320696e20657363726f7760701b6044820152606490fd5b835162461bcd60e51b8152808301879052601960248201527f5365727669636520616c726561647920636f6d706c65746564000000000000006044820152606490fd5b91606492519162461bcd60e51b83528201526014602482015273151bdad95b88191bd95cc81b9bdd08195e1a5cdd60621b6044820152fd5b50600754841115610cf4565b8380fd5b5090346101a45760203660031901126101a4578060a09383358160808451610fa281611403565b8281528260208201528286820152826060820152015280151580611045575b610fca90611743565b8152600860205220815191610fde83611403565b815493848452600180871b0390818060018601541660208701908152608060ff8360028901541694878a0195865260038901549860608b01998a52015416970196151587528451978852511660208701525116908401525160608301525115156080820152f35b50600754811115610fc1565b5090346101a457806003193601126101a45761106b61139d565b9160243561107881611544565b3315158061111a575b806110f1575b6110db576001600160a01b039485169482918691167f8c5be1e5ebec7d5bd14f71427d1e84f3dd0314c0f7b2291e5b200ac8c7c3b9258880a48452602052822080546001600160a01b031916909117905580f35b835163a9fbf51f60e01b81523381850152602490fd5b506001600160a01b03811686526005602090815284872033885290528386205460ff1615611087565b506001600160a01b038116331415611081565b50346101a45760203660031901126101a45791826020933561114e81611544565b50825283528190205490516001600160a01b039091168152f35b508290346105dd5760203660031901126105dd5761118461139d565b9061118d6114ab565b6001600160a01b0382169081156111f15750926108d192936001600160601b0360a01b600a541617600a55516111c281611435565b601781527f53657276696365436f6e74726163742073657420746f3a0000000000000000006020820152611c03565b606490602086519162461bcd60e51b8352820152600f60248201526e496e76616c6964206164647265737360881b6044820152fd5b509134610abc5780600319360112610abc5781519181825492600184811c918186169586156112e7575b6020968785108114610a9f578899509688969785829a529182600014610a7857505060011461128c5750505061083c9291610a0e91038561146d565b91908693508280527f290decd9548b62a8d60345a988386fc84ba6bc95484008f6362f93160ef3e5635b8284106112cf5750505082010181610a0e61083c6109fb565b8054848a0186015288955087949093019281016112b6565b92607f1692611250565b925050346101a45760203660031901126101a4573563ffffffff60e01b81168091036101a457602092506380ac58cd60e01b811490811561134c575b811561133b575b5015158152f35b6301ffc9a760e01b14905038611334565b635b5e139f60e01b8114915061132d565b919082519283825260005b848110611389575050826000602080949584010152601f8019910116010190565b602081830181015184830182015201611368565b600435906001600160a01b03821682036113b357565b600080fd5b602435906001600160a01b03821682036113b357565b60609060031901126113b3576001600160a01b039060043582811681036113b3579160243590811681036113b3579060443590565b60a0810190811067ffffffffffffffff82111761141f57604052565b634e487b7160e01b600052604160045260246000fd5b6040810190811067ffffffffffffffff82111761141f57604052565b6020810190811067ffffffffffffffff82111761141f57604052565b90601f8019910116810190811067ffffffffffffffff82111761141f57604052565b67ffffffffffffffff811161141f57601f01601f191660200190565b6006546001600160a01b031633036114bf57565b60405163118cdaa760e01b8152336004820152602490fd5b91906001600160a01b03908181161561152b576114f78291843391611848565b931692169082820361150857505050565b60649350604051926364283d7b60e01b8452600484015260248301526044820152fd5b604051633250574960e11b815260006004820152602490fd5b6000818152600260205260409020546001600160a01b0316908115611567575090565b60249060405190637e27328960e01b82526004820152fd5b3d156115aa573d906115908261148f565b9161159e604051938461146d565b82523d6000602084013e565b606090565b9190803b6115be575b50505050565b61160060018060a01b0380921694604051938493630a85bd0160e11b96878652336004870152166024850152604484015260806064840152608483019061135d565b03906020816000938185885af19082908261167f575b505061164e578261162561157f565b805191908261164757604051633250574960e11b815260048101839052602490fd5b9050602001fd5b6001600160e01b031916036116675750388080806115b8565b60249060405190633250574960e11b82526004820152fd5b909192506020813d82116116bf575b8161169b6020938361146d565b810103126105dd5751906001600160e01b031982168203610abc5750903880611616565b3d915061168e565b156116ce57565b60405162461bcd60e51b815260206004820152602260248201527f4f6e6c792053657276696365436f6e74726163742063616e2063616c6c207468604482015261697360f01b6064820152608490fd5b600019811461172d5760010190565b634e487b7160e01b600052601160045260246000fd5b1561174a57565b60405162461bcd60e51b815260206004820152601060248201526f125b9d985b1a59081d1bdad95b88125160821b6044820152606490fd5b6000818152600260205260409020546001600160a01b0316156117ab576117a8906118dd565b90565b6117a8906118dd565b9080600052600260205260018060a01b0380604060002054161561183e578216156118355760405162461bcd60e51b815260206004820152602e60248201527f536572766963654e46543a2043616e6e6f74207472616e73666572206163746960448201526d1d99481cd95c9d9a58d94813919560921b6064820152608490fd5b6117a891611971565b506117a891611971565b919080600052600260205260018060a01b038060406000205416156118d3578316156118ca5760405162461bcd60e51b815260206004820152602e60248201527f536572766963654e46543a2043616e6e6f74207472616e73666572206163746960448201526d1d99481cd95c9d9a58d94813919560921b6064820152608490fd5b6117a892611a2a565b506117a892611a2a565b6000818152600260205260408120546001600160a01b031691908261193f575b81815260026020526040812080546001600160a01b0319169055827fddf252ad1be2c89b69c2b068fc378daa952ba7f163c4a11628f55a4df523b3ef8280a490565b6004602052604081206001600160601b0360a01b815416905582815260036020526040812060001981540190556118fd565b6000828152600260205260408120546001600160a01b03908116939284917fddf252ad1be2c89b69c2b068fc378daa952ba7f163c4a11628f55a4df523b3ef91836119f8575b1692836119e0575b84815260026020526040812080546001600160a01b0319168517905580a490565b838152600360205260408120600181540190556119bf565b6004602052604085206001600160601b0360a01b815416905583855260036020526040852060001981540190556119b7565b916000928284526020916002835260018060a01b039460408681832054169683818995168015159081611aef575b50505060029084957fddf252ad1be2c89b69c2b068fc378daa952ba7f163c4a11628f55a4df523b3ef95611ac0575b169586611aaa575b87845252812080546001600160a01b0319168517905580a490565b8684526003815282842060018154019055611a8f565b8885526004885283852080546001600160a01b0319169055868552600388528385208054600019019055611a87565b90809293959794965091611b5e575b5015611b11579182808995939694611a58565b8387918915600014611b35578151637e27328960e01b815260048101849052602490fd5b905163177e802f60e01b81526001600160a01b0390911660048201526024810191909152604490fd5b89811491508115611b8e575b8115611b78575b5038611afe565b9050878652600487528385872054161438611b71565b8987526005885285872081885288528587205460ff169150611b6a565b600091908291611bf06040518092611bdc6020830195632d839cb360e21b875260406024850152606484019061135d565b90604483015203601f19810183528261146d565b51906a636f6e736f6c652e6c6f675afa50565b600091908291611bf06040518092611c34602083019563319af33360e01b875260406024850152606484019061135d565b6001600160a01b0391909116604483015203601f19810183528261146d56fea2646970667358221220a98241346eae08434b501b44c3ae40bc99870ea0b78dbab1a91a807a7feb224a64736f6c63430008140033",
  "devdoc": {
    "details": "NFT contract that holds funds in escrow until service completion When NFT is minted, funds are locked. When burned, funds are released.",
    "errors": {
      "ERC721IncorrectOwner(address,uint256,address)": [
        {
          "details": "Indicates an error related to the ownership over a particular token. Used in transfers.",
          "params": {
            "owner": "Address of the current owner of a token.",
            "sender": "Address whose tokens are being transferred.",
            "tokenId": "Identifier number of a token."
          }
        }
      ],
      "ERC721InsufficientApproval(address,uint256)": [
        {
          "details": "Indicates a failure with the `operator`s approval. Used in transfers.",
          "params": {
            "operator": "Address that may be allowed to operate on tokens without being their owner.",
            "tokenId": "Identifier number of a token."
          }
        }
      ],
      "ERC721InvalidApprover(address)": [
        {
          "details": "Indicates a failure with the `approver` of a token to be approved. Used in approvals.",
          "params": {
            "approver": "Address initiating an approval operation."
          }
        }
      ],
      "ERC721InvalidOperator(address)": [
        {
          "details": "Indicates a failure with the `operator` to be approved. Used in approvals.",
          "params": {
            "operator": "Address that may be allowed to operate on tokens without being their owner."
          }
        }
      ],
      "ERC721InvalidOwner(address)": [
        {
          "details": "Indicates that an address can't be an owner. For example, `address(0)` is a forbidden owner in EIP-20. Used in balance queries.",
          "params": {
            "owner": "Address of the current owner of a token."
          }
        }
      ],
      "ERC721InvalidReceiver(address)": [
        {
          "details": "Indicates a failure with the token `receiver`. Used in transfers.",
          "params": {
            "receiver": "Address to which tokens are being transferred."
          }
        }
      ],
      "ERC721InvalidSender(address)": [
        {
          "details": "Indicates a failure with the token `sender`. Used in transfers.",
          "params": {
            "sender": "Address whose tokens are being transferred."
          }
        }
      ],
      "ERC721NonexistentToken(uint256)": [
        {
          "details": "Indicates a `tokenId` whose `owner` is the zero address.",
          "params": {
            "tokenId": "Identifier number of a token."
          }
        }
      ],
      "OwnableInvalidOwner(address)": [
        {
          "details": "The owner is not a valid owner account. (eg. `address(0)`)"
        }
      ],
      "OwnableUnauthorizedAccount(address)": [
        {
          "details": "The caller account is not authorized to perform an operation."
        }
      ]
    },
    "events": {
      "Approval(address,address,uint256)": {
        "details": "Emitted when `owner` enables `approved` to manage the `tokenId` token."
      },
      "ApprovalForAll(address,address,bool)": {
        "details": "Emitted when `owner` enables or disables (`approved`) `operator` to manage all of its assets."
      },
      "Transfer(address,address,uint256)": {
        "details": "Emitted when `tokenId` token is transferred from `from` to `to`."
      }
    },
    "kind": "dev",
    "methods": {
      "approve(address,uint256)": {
        "details": "See {IERC721-approve}."
      },
      "balanceOf(address)": {
        "details": "See {IERC721-balanceOf}."
      },
      "completeServiceAndBurn(uint256)": {
        "details": "Complete service, burn NFT, and release funds to acceptor Called by ServiceContract when requester verifies completion"
      },
      "emergencyWithdraw()": {
        "details": "Emergency withdraw (only owner, only if no active services)"
      },
      "getApproved(uint256)": {
        "details": "See {IERC721-getApproved}."
      },
      "getNFTData(uint256)": {
        "details": "Get NFT data for a token"
      },
      "getTokenCounter()": {
        "details": "Get current token counter"
      },
      "getTokenIdForService(uint256)": {
        "details": "Get token ID for a service"
      },
      "isApprovedForAll(address,address)": {
        "details": "See {IERC721-isApprovedForAll}."
      },
      "mintServiceNFT(uint256,address,address)": {
        "details": "Mint NFT and lock funds in escrow Called by ServiceContract when service is accepted"
      },
      "name()": {
        "details": "See {IERC721Metadata-name}."
      },
      "owner()": {
        "details": "Returns the address of the current owner."
      },
      "ownerOf(uint256)": {
        "details": "See {IERC721-ownerOf}."
      },
      "renounceOwnership()": {
        "details": "Leaves the contract without owner. It will not be possible to call `onlyOwner` functions. Can only be called by the current owner. NOTE: Renouncing ownership will leave the contract without an owner, thereby disabling any functionality that is only available to the owner."
      },
      "safeTransferFrom(address,address,uint256)": {
        "details": "See {IERC721-safeTransferFrom}."
      },
      "safeTransferFrom(address,address,uint256,bytes)": {
        "details": "See {IERC721-safeTransferFrom}."
      },
      "setApprovalForAll(address,bool)": {
        "details": "See {IERC721-setApprovalForAll}."
      },
      "setServiceContract(address)": {
        "details": "Set the authorized ServiceContract address CRITICAL: Must be called after ServiceContract deployment"
      },
      "supportsInterface(bytes4)": {
        "details": "See {IERC165-supportsInterface}."
      },
      "symbol()": {
        "details": "See {IERC721Metadata-symbol}."
      },
      "tokenURI(uint256)": {
        "details": "See {IERC721Metadata-tokenURI}."
      },
      "transferFrom(address,address,uint256)": {
        "details": "See {IERC721-transferFrom}."
      },
      "transferOwnership(address)": {
        "details": "Transfers ownership of the contract to a new account (`newOwner`). Can only be called by the current owner."
      }
    },
    "title": "ServiceNFT",
    "version": 1
  },
  "userdoc": {
    "kind": "user",
    "methods": {},
    "version": 1
  },
  "storageLayout": {
    "storage": [
      {
        "astId": 317,
        "contract": "contracts/ServiceNFT.sol:ServiceNFT",
        "label": "_name",
        "offset": 0,
        "slot": "0",
        "type": "t_string_storage"
      },
      {
        "astId": 319,
        "contract": "contracts/ServiceNFT.sol:ServiceNFT",
        "label": "_symbol",
        "offset": 0,
        "slot": "1",
        "type": "t_string_storage"
      },
      {
        "astId": 323,
        "contract": "contracts/ServiceNFT.sol:ServiceNFT",
        "label": "_owners",
        "offset": 0,
        "slot": "2",
        "type": "t_mapping(t_uint256,t_address)"
      },
      {
        "astId": 327,
        "contract": "contracts/ServiceNFT.sol:ServiceNFT",
        "label": "_balances",
        "offset": 0,
        "slot": "3",
        "type": "t_mapping(t_address,t_uint256)"
      },
      {
        "astId": 331,
        "contract": "contracts/ServiceNFT.sol:ServiceNFT",
        "label": "_tokenApprovals",
        "offset": 0,
        "slot": "4",
        "type": "t_mapping(t_uint256,t_address)"
      },
      {
        "astId": 337,
        "contract": "contracts/ServiceNFT.sol:ServiceNFT",
        "label": "_operatorApprovals",
        "offset": 0,
        "slot": "5",
        "type": "t_mapping(t_address,t_mapping(t_address,t_bool))"
      },
      {
        "astId": 8,
        "contract": "contracts/ServiceNFT.sol:ServiceNFT",
        "label": "_owner",
        "offset": 0,
        "slot": "6",
        "type": "t_address"
      },
      {
        "astId": 4025,
        "contract": "contracts/ServiceNFT.sol:ServiceNFT",
        "label": "_tokenIdCounter",
        "offset": 0,
        "slot": "7",
        "type": "t_uint256"
      },
      {
        "astId": 4041,
        "contract": "contracts/ServiceNFT.sol:ServiceNFT",
        "label": "nftData",
        "offset": 0,
        "slot": "8",
        "type": "t_mapping(t_uint256,t_struct(NFTData)4036_storage)"
      },
      {
        "astId": 4045,
        "contract": "contracts/ServiceNFT.sol:ServiceNFT",
        "label": "serviceToTokenId",
        "offset": 0,
        "slot": "9",
        "type": "t_mapping(t_uint256,t_uint256)"
      },
      {
        "astId": 4047,
        "contract": "contracts/ServiceNFT.sol:ServiceNFT",
        "label": "serviceContract",
        "offset": 0,
        "slot": "10",
        "type": "t_address"
      }
    ],
    "types": {
      "t_address": {
        "encoding": "inplace",
        "label": "address",
        "numberOfBytes": "20"
      },
      "t_bool": {
        "encoding": "inplace",
        "label": "bool",
        "numberOfBytes": "1"
      },
      "t_mapping(t_address,t_bool)": {
        "encoding": "mapping",
        "key": "t_address",
        "label": "mapping(address => bool)",
        "numberOfBytes": "32",
        "value": "t_bool"
      },
      "t_mapping(t_address,t_mapping(t_address,t_bool))": {
        "encoding": "mapping",
        "key": "t_address",
        "label": "mapping(address => mapping(address => bool))",
        "numberOfBytes": "32",
        "value": "t_mapping(t_address,t_bool)"
      },
      "t_mapping(t_address,t_uint256)": {
        "encoding": "mapping",
        "key": "t_address",
        "label": "mapping(address => uint256)",
        "numberOfBytes": "32",
        "value": "t_uint256"
      },
      "t_mapping(t_uint256,t_address)": {
        "encoding": "mapping",
        "key": "t_uint256",
        "label": "mapping(uint256 => address)",
        "numberOfBytes": "32",
        "value": "t_address"
      },
      "t_mapping(t_uint256,t_struct(NFTData)4036_storage)": {
        "encoding": "mapping",
        "key": "t_uint256",
        "label": "mapping(uint256 => struct ServiceNFT.NFTData)",
        "numberOfBytes": "32",
        "value": "t_struct(NFTData)4036_storage"
      },
      "t_mapping(t_uint256,t_uint256)": {
        "encoding": "mapping",
        "key": "t_uint256",
        "label": "mapping(uint256 => uint256)",
        "numberOfBytes": "32",
        "value": "t_uint256"
      },
      "t_string_storage": {
        "encoding": "bytes",
        "label": "string",
        "numberOfBytes": "32"
      },
      "t_struct(NFTData)4036_storage": {
        "encoding": "inplace",
        "label": "struct ServiceNFT.NFTData",
        "members": [
          {
            "astId": 4027,
            "contract": "contracts/ServiceNFT.sol:ServiceNFT",
            "label": "serviceId",
            "offset": 0,
            "slot": "0",
            "type": "t_uint256"
          },
          {
            "astId": 4029,
            "contract": "contracts/ServiceNFT.sol:ServiceNFT",
            "label": "requester",
            "offset": 0,
            "slot": "1",
            "type": "t_address"
          },
          {
            "astId": 4031,
            "contract": "contracts/ServiceNFT.sol:ServiceNFT",
            "label": "acceptor",
            "offset": 0,
            "slot": "2",
            "type": "t_address"
          },
          {
            "astId": 4033,
            "contract": "contracts/ServiceNFT.sol:ServiceNFT",
            "label": "escrowAmount",
            "offset": 0,
            "slot": "3",
            "type": "t_uint256"
          },
          {
            "astId": 4035,
            "contract": "contracts/ServiceNFT.sol:ServiceNFT",
            "label": "completed",
            "offset": 0,
            "slot": "4",
            "type": "t_bool"
          }
        ],
        "numberOfBytes": "160"
      },
      "t_uint256": {
        "encoding": "inplace",
        "label": "uint256",
        "numberOfBytes": "32"
      }
    }
  }
}